:020000040000FA
:0400000007EF00F016
:100008005A8274ED0DF0A5EF0DF04B6E2550D8A473
:1000180010EF00F012EF00F028EF00F0000E366E3F
:10002800650E3CEC0EF0010E366E660E3CEC0EF0E2
:10003800000E366E670E3CEC0EF0010E366E680E42
:100048003CEC0EF03FEF00F0000E496E650E506E6E
:1000580049507F0FD96EDA6ADF50366E50503CEC4B
:100068000EF0492A502A680E50643DEF00F03FEF29
:1000780000F02CEF00F0000E4A6E000E4F6E650E79
:100088004E6E4A50770FD96EDA6A4E5094EC0EF0E5
:10009800DF6E4A2A4E4A4F2A4FBE5CEF00F04F509F
:1000A80009E1690E4E5CD8A05CEF00F05EEF00F04D
:1000B80045EF00F0000E4D6E000E4C6E040E2660EB
:1000C80068EF00F06AEF00F02BEF02F0E90E376EF0
:1000D8002E0E386E800E396E0CEC0DF01450436EF7
:1000E8001550446E144A152A445007E1190E435C12
:1000F800D8B081EF00F083EF00F08EEF00F0FD0E36
:10010800376E2F0E386E2650C00F396E0CEC0DF07E
:10011800B9EF00F01450436E1550446E144A152A76
:10012800445009E11A0E435CD8A09DEF00F09FEF00
:1001380000F0B5EF00F0155007E1320E145CD8B0AE
:10014800A8EF00F0AAEF00F0B5EF00F0AB0E376EA5
:100158002E0E386E2650C00F396E0CEC0DF0B9EF2C
:1001680000F0000E156E000E146E010E00017327CC
:10017800000E742375237623FB0E73197411751101
:100188007611D8A4CAEF00F0CCEF00F0DDEF00F054
:10019800000E736F000E746F000E756F000E766F91
:1001A800000E266E000E356E010E5CEC0EF0000E91
:1001B8002B6E050E4B18D8A4E4EF00F0E6EF00F024
:1001C800FEEF00F0000E0001736F000E746F000E5A
:1001D800756F000E766F26507B0FD96EDA6ADF6A6C
:1001E800FB0E376E2F0E386E2650C00F396E0CEC92
:1001F8000DF0262A060E4B18D8A405EF01F007EFDC
:1002080001F020EF01F0000E0001736F000E746F13
:10021800000E756F000E766F26507B0FD96EDA6A66
:10022800010EDF6EFB0E376E2F0E386E2650C00F94
:10023800396E0CEC0DF0262A000E526E000E516E2F
:100248005150770FD96EDA6A51507B0FE16EE26A2E
:10025800DE50E618D8B433EF01F035EF01F03BEF8C
:1002680001F0000E4D6E010E4C6E4BEF01F0514A3D
:10027800522A52BE49EF01F0525009E1040E515C76
:10028800D8A049EF01F04BEF01F024EF01F04C50FA
:100298004D10D8B452EF01F054EF01F010EF02F016
:1002A800040E2618D8A45BEF01F05DEF01F010EF03
:1002B80002F05850D8B463EF01F065EF01F0A0EFF9
:1002C80001F07F0E376E2F0E386E800E396E0CECF3
:1002D8000DF0C00E416E5850300FFFEC0EF0A90E15
:1002E800376E2F0E386EC10E396E0CEC0DF0200EE5
:1002F800456EA10E466E070E476E000E486E450607
:10030800000E465A475A485A45280AE1462808E145
:10031800472806E14828D8A494EF01F096EF01F0A9
:1003280083EF01F0000E356E010E5CEC0EF05806FE
:10033800000E266E2BEF02F0F28CF28E0BEC0FF013
:10034800000E176E050E166E6F0E376E2F0E386E76
:10035800800E396E0CEC0DF0CC0E376E2F0E386E09
:10036800C00E396E0CEC0DF0C70E416E16C03CF095
:1003780017C03DF0000E3F6E0A0E3E6E42EC0DF0C7
:100388003C50300FFFEC0EF0C60E416E000E386E7A
:100398000A0E376E16C035F017C036F09CEC0CF01C
:1003A80035C03CF036C03DF0000E3F6E0A0E3E6E82
:1003B80042EC0DF03C50300FFFEC0EF0C50E416ED4
:1003C80016C035F017C036F0000E386E640E376E62
:1003D8009CEC0CF03550300FFFEC0EF0BF0E376E72
:1003E8002F0E386EC90E396E0CEC0DF01650171022
:1003F800D8A401EF02F003EF02F0A8EF01F0F29E9B
:10040800F29C000E356E010E5CEC0EF0030E586E79
:10041800000E266E2BEF02F0040E2618D8A417EF54
:1004280002F019EF02F02BEF02F04C504D10D8A457
:1004380020EF02F022EF02F02BEF02F0000E356EF3
:10044800010E5CEC0EF0000E266E020E2B6E1200F2
:10045800486E060E4818D8A434EF02F036EF02F0C2
:100468004AEF02F00C4A0D2A0DBE44EF02F00D507F
:1004780009E1030E0C5CD8A044EF02F046EF02F04D
:100488004AEF02F0000E0D6E000E0C6E0C500D10AF
:10049800D8A451EF02F053EF02F0F7EF02F0B60ED6
:1004A800376E2F0E386E800E396E0CEC0DF02C0E58
:1004B800376E386AC00E396E0CEC0DF00BBE67EF64
:1004C80002F069EF02F082EF02F00BBE77EF02F064
:1004D8000B5007E1640E0A5CD8B075EF02F077EFB5
:1004E80002F082EF02F02C0E376E386AC00E396EB9
:1004F8000CEC0DF00A4A0B2ABAEF02F00BBE8EEF95
:1005080002F00B5009E1640E0A5CD8A08EEF02F0ED
:1005180090EF02F0BAEF02F00BBE9EEF02F00B5024
:1005280007E1C80E0A5CD8B09CEF02F09EEF02F01B
:10053800BAEF02F0AA0E376E2E0E386EC00E396E64
:100548000CEC0DF00A4A0B2A0BBEB4EF02F00B506C
:1005580009E1C70E0A5CD8A0B4EF02F0B6EF02F0CA
:10056800BAEF02F0000E0B6E000E0A6E050E481868
:10057800D8A4C1EF02F0C3EF02F020EF04F0390E67
:100588002D60C9EF02F0CBEF02F0E4EF02F02D2A64
:10059800320E2C18D8A4D3EF02F0D5EF02F0F5EF05
:1005A80002F0340E2D18D8A4DCEF02F0DEEF02F0D2
:1005B800F5EF02F0300E2C6E300E2D6E20EF04F0A9
:1005C800300E2D6E320E2C60ECEF02F0EEEF02F0E2
:1005D800F1EF02F02C2A20EF04F0300E2C6E20EF01
:1005E80004F020EF04F00C040D10D8A4FEEF02F084
:1005F80000EF03F090EF03F0B60E376E2F0E386E53
:10060800800E396E0CEC0DF02C0E376E386AC00E69
:10061800396E0CEC0DF00BBE14EF03F016EF03F07F
:100628002FEF03F00BBE24EF03F00B5007E1640E2D
:100638000A5CD8B022EF03F024EF03F02FEF03F0A9
:100648002C0E376E386AC00E396E0CEC0DF00A4A63
:100658000B2A6BEF03F00BBE3BEF03F00B5009E1E5
:10066800640E0A5CD8A03BEF03F03DEF03F06BEF9C
:1006780003F00BBE4BEF03F00B5007E1C80E0A5C0A
:10068800D8B049EF03F04BEF03F06BEF03F0AA0E7D
:10069800376E2E0E386EC30E396E0CEC0DF00A5004
:1006A800466E0B50476E0A4A0B2A47BE65EF03F0A9
:1006B800475009E1C70E465CD8A065EF03F067EF25
:1006C80003F06BEF03F0000E0B6E000E0A6E050EC2
:1006D8004818D8A472EF03F074EF03F020EF04F089
:1006E800390E30607AEF03F07CEF03F07FEF03F010
:1006F800302A20EF04F0300E306E350E2F6087EF71
:1007080003F089EF03F08CEF03F02F2A20EF04F0B9
:10071800300E2F6E20EF04F0020E0C180D10D8A426
:1007280098EF03F09AEF03F020EF04F0B60E376E5F
:100738002F0E386E800E396E0CEC0DF02C0E376EC5
:10074800386AC00E396E0CEC0DF00BBEAEEF03F03C
:10075800B0EF03F0C9EF03F00BBEBEEF03F00B5090
:1007680007E1640E0A5CD8B0BCEF03F0BEEF03F0FB
:10077800C9EF03F02C0E376E386AC00E396E0CECD8
:100788000DF00A4A0B2AFDEF03F00BBED5EF03F07C
:100798000B5009E1640E0A5CD8A0D5EF03F0D7EF3F
:1007A80003F0FDEF03F00BBEE5EF03F00B5007E19C
:1007B800C80E0A5CD8B0E3EF03F0E5EF03F0FDEFF5
:1007C80003F0AA0E376E2E0E386EC60E396E0CEC7C
:1007D8000DF00A4A0B2AC80E0A180B10D8A4F7EF16
:1007E80003F0F9EF03F0FDEF03F0000E0B6E000EBF
:1007F8000A6E050E4818D8A404EF04F006EF04F0BA
:1008080020EF04F0390E33600CEF04F00EEF04F023
:1008180011EF04F0332A20EF04F0300E336E350E5A
:10082800326019EF04F01BEF04F01EEF04F0322AD7
:1008380020EF04F0300E326E0F0E4818D8A427EFC0
:1008480004F029EF04F02EEF04F04850C5EC08F04E
:1008580039EF04F0100E4818D8A435EF04F037EF3C
:1008680004F039EF04F0020E2B6E1200506E040EE5
:10087800216041EF04F043EF04F0DDEF04F01F5076
:10088800D8A449EF04F04BEF04F0DDEF04F0AD0E0F
:10089800376E2E0E386E800E396E0CEC0DF00E5041
:1008A800456E0F50466E0E4A0F2AE80E455C030E41
:1008B8004658D8B062EF04F064EF04F06FEF04F02C
:1008C800FD0E376E2F0E386E2150C00F396E0CECAE
:1008D8000DF09AEF04F00E50456E0F50466E0E4A1A
:1008E8000F2AE90E455C030E4658D8A07EEF04F0A7
:1008F80080EF04F096EF04F0D00E0E5C070E0F5850
:10090800D8B089EF04F08BEF04F096EF04F0AB0E4B
:10091800376E2E0E386E2150C00F396E0CEC0DF06C
:100928009AEF04F0000E0F6E000E0E6E050E5018B2
:10093800D8A4A1EF04F0A3EF04F0B2EF04F0215023
:100948007F0FD96EDA6ADF6AFB0E376E2F0E386EAC
:100958002150C00F396E0CEC0DF0212A060E5018EC
:10096800D8A4B9EF04F0BBEF04F0CBEF04F02150AA
:100978007F0FD96EDA6A010EDF6EFB0E376E2F0E0F
:10098800386E2150C00F396E0CEC0DF0212A040E80
:100998002118D8A4D2EF04F0D4EF04F02FEF06F01A
:1009A800000E356E010E5CEC0EF0010E1F6E2FEF7F
:1009B80006F0040E2060E3EF04F0E5EF04F078EFB2
:1009C80005F01F04D8A4EBEF04F0EDEF04F078EF86
:1009D80005F0E60E376E2E0E386E800E396E0CEC72
:1009E8000DF00E50456E0F50466E0E4A0F2AE80E57
:1009F800455C030E4658D8B004EF05F006EF05F045
:100A080011EF05F0FD0E376E2F0E386E2050C00F17
:100A1800396E0CEC0DF03CEF05F00E50456E0F50A2
:100A2800466E0E4A0F2AE90E455C030E4658D8A0BA
:100A380020EF05F022EF05F038EF05F0D00E0E5C40
:100A4800070E0F58D8B02BEF05F02DEF05F038EF53
:100A580005F0AB0E376E2E0E386E2050C00F396E73
:100A68000CEC0DF03CEF05F0000E0F6E000E0E6E54
:100A7800050E5018D8A443EF05F045EF05F054EFE4
:100A880005F020506B0FD96EDA6ADF6AFB0E376EFD
:100A98002F0E386E2050C00F396E0CEC0DF0202A46
:100AA800060E5018D8A45BEF05F05DEF05F06DEF6A
:100AB80005F020506B0FD96EDA6A010EDF6EFB0E5F
:100AC800376E2F0E386E2050C00F396E0CEC0DF0BB
:100AD800202A040E2018D8A474EF05F076EF05F04C
:100AE8002FEF06F0D9EF04F0040E2118D8A47FEFF9
:100AF80005F081EF05F02FEF06F0040E2018D8A4BA
:100B080088EF05F08AEF05F02FEF06F0000E526E21
:100B1800000E516E51506B0FD96EDA6A51507F0F2B
:100B2800E16EE26ADE50E618D8B49DEF05F09FEF5B
:100B380005F0A1EF05F0020E1F6E514A522A52BE6F
:100B4800AFEF05F0525009E1040E515CD8A0AFEFA9
:100B580005F0B1EF05F08EEF05F0020E1F18D8A4CE
:100B6800B8EF05F0BAEF05F0EFEF05F02C0E376E91
:100B78002F0E386E800E396E0CEC0DF00A0E376EA3
:100B88002F0E386EC00E396E0CEC0DF0000E206E74
:100B980020C021F021C01FF0200E476EA10E486E24
:100BA800070E496E000E4A6E4706000E485A495A0B
:100BB8004A5A47280AE1482808E1492806E14A280C
:100BC800D8A4E9EF05F0EBEF05F0D8EF05F0020E39
:100BD8002B6E2FEF06F02C0E376E2F0E386E800E10
:100BE800396E0CEC0DF01B0E376E2F0E386EC00EE2
:100BF800396E0CEC0DF0010E256E1AC04FF0000E88
:100C08001B6E0A0E1A6E85EC0AF04FC01AF01B6AAA
:100C1800000E206E20C021F021C01FF0200E4B6E68
:100C2800A10E4C6E070E4D6E000E4E6E4B06000E5A
:100C38004C5A4D5A4E5A4B280AE14C2808E14D2887
:100C480006E14E28D8A42BEF06F02DEF06F01AEF98
:100C580006F0EBEF05F01200486E2450D8A437EFE9
:100C680006F039EF06F049EF06F02350D8A43FEF1D
:100C780006F041EF06F049EF06F08E0E376E2F0EA4
:100C8800386E810E396E0CEC0DF0050E4818D8A49C
:100C980050EF06F052EF06F07FEF06F02350D8B47D
:100CA80058EF06F05AEF06F065EF06F0090E2260DD
:100CB80060EF06F062EF06F091EF06F0222A91EF5E
:100CC80006F0FF0E2424436E446AFF0E442222508D
:100CD800456E466A4350455C4650800A476E44500C
:100CE800800A4758D8B07BEF06F07DEF06F091EF09
:100CF80006F062EF06F0060E4818D8A486EF06F054
:100D080088EF06F091EF06F02250D8B48EEF06F087
:100D180090EF06F091EF06F02206100E4818D8A4BE
:100D280098EF06F09AEF06F0A1EF06F0000E356E88
:100D3800010E5CEC0EF0020E2B6E2450D8A4A7EF27
:100D480006F0A9EF06F0B1EF06F02350D8B4AFEFE4
:100D580006F0B1EF06F049EF07F0C70E376E2F0E19
:100D6800386E860E396E0CEC0DF0C00E416E2250B6
:100D7800310FFFEC0EF0F70E376E2F0E386EC10EE6
:100D8800396E0CEC0DF0C20E416E22500A0DF35074
:100D980094EC0EF0FFEC0EF0C30E416E22500A0DDB
:100DA800F32894EC0EF0FFEC0EF0F90E376E2F0ED0
:100DB800386EC40E396E0CEC0DF0C50E416E225023
:100DC8000A0DF350020F94EC0EF0FFEC0EF0C60E75
:100DD800416E22500A0DF350030F94EC0EF0FFEC15
:100DE8000EF0F90E376E2F0E386EC70E396E0CECFA
:100DF8000DF0C80E416E22500A0DF350040F94EC0A
:100E08000EF0FFEC0EF0C90E416E22500A0DF350A1
:100E1800050F94EC0EF0FFEC0EF0F90E376E2F0E66
:100E2800386ECA0E396E0CEC0DF0CB0E416E2250A6
:100E38000A0DF350060F94EC0EF0FFEC0EF0CC0EFA
:100E4800416E22500A0DF350070F94EC0EF0FFECA0
:100E58000EF0F90E376E2F0E386ECD0E396E0CEC83
:100E68000DF0CE0E416E22500A0DF350080F94EC8F
:100E78000EF0FFEC0EF0CF0E416E22500A0DF3502B
:100E8800090F94EC0EF0FFEC0EF0120016EC0FF0C8
:100E9800000E566E000E556E000E61EC0CF0576E8B
:100EA8005728D8B45AEF07F05CEF07F07AEF07F04D
:100EB80057C053F0546A554A562AE80E551807E1A8
:100EC800030E5618D8A46BEF07F06DEF07F076EF16
:100ED80007F057500A0F576E000E566E000E556EEB
:100EE80092EF07F0000E576E92EF07F0E80E555C90
:100EF800030E5658D8B083EF07F085EF07F092EF4E
:100F080007F055505610D8B48CEF07F08EEF07F065
:100F180092EF07F053C057F070EF07F02B50D8A4AA
:100F280098EF07F09AEF07F09FEF07F05750DDECC6
:100F38000BF050EF07F02B04D8A4A5EF07F0A7EFAC
:100F480007F0ACEF07F0575009EC00F050EF07F04E
:100F5800020E2B18D8A4B3EF07F0B5EF07F0BAEFDD
:100F680007F057500AEC08F050EF07F0030E2B1863
:100F7800D8A4C1EF07F0C3EF07F050EF07F02A50ED
:100F8800D8A4C9EF07F0CBEF07F0D0EF07F0575020
:100F980030EC06F050EF07F02A04D8A4D6EF07F09B
:100FA800D8EF07F0DCEF07F079EC09F050EF07F025
:100FB800020E2A18D8A4E3EF07F0E5EF07F0EAEFEE
:100FC80007F057501BEC0EF050EF07F0030E2A18ED
:100FD800D8A4F1EF07F0F3EF07F0F8EF07F0575058
:100FE8002CEC02F050EF07F0040E2A18D8A4FFEFFB
:100FF80007F001EF08F006EF08F057503AEC04F05C
:1010080050EF07F050EF07F007EF00F0436E125073
:101018001310D8A412EF08F014EF08F023EF08F02B
:10102800800E416E2A0EFFEC0EF0AA0E376E2E0EC1
:10103800386EC00E396E0CEC0DF030EF08F0AA0EC9
:10104800376E2E0E386E800E396E0CEC0DF0C00E19
:10105800416E2A0EFFEC0EF0050E4318D8A437EFA8
:1010680008F039EF08F054EF08F012041310D8A470
:1010780040EF08F042EF08F048EF08F0000E136E5A
:10108800000E126E54EF08F010501110D8B44FEF44
:1010980008F051EF08F054EF08F01006D8A0110638
:1010A800060E4318D8A45BEF08F05DEF08F079EF5F
:1010B80008F012501310D8A464EF08F066EF08F097
:1010C8006CEF08F0000E136E010E126E79EF08F047
:1010D800115007E1030E105CD8B075EF08F077EFF8
:1010E80008F079EF08F0104A112A1050020DF35059
:1010F800930FD96EDA6ADECF37F0DDCF38F0810E84
:10110800396E0CEC0DF01050020DF350950FD96E9E
:10111800DA6ADECF37F0DDCF38F0C10E396E0CEC6D
:101128000DF00F0E4318D8A49CEF08F09EEF08F0BE
:10113800B4EF08F0000E356E010E5CEC0EF0030EF5
:101148002B6E12501310D8A4ACEF08F0AEEF08F0D5
:10115800B2EF08F010C02AF0B4EF08F010282A6E99
:10116800100E4318D8A4BBEF08F0BDEF08F0C4EF89
:1011780008F0000E356E010E5CEC0EF0000E2B6EC2
:101188001200456E2C500A0DF3CF43F0F4CF44F013
:101198002D504326000E4422F00E4324086EFD0E07
:1011A8004420096E2F500A0DF3CF43F0F4CF44F0DA
:1011B80030504326000E4422F00E4324066EFD0EE6
:1011C8004420076E32500A0DF3CF43F0F4CF44F0B9
:1011D80033504326000E4422F00E4324046EFD0EC5
:1011E8004420056E000EBEEC0EF01E6E1E508009E7
:1011F800416E000EE3EC0EF004C035F005C036F089
:10120800000E386E0A0E376E9CEC0CF035C043F0B9
:1012180036C044F0433AF00E431604C03CF005C013
:101228003DF0000E3F6E0A0E3E6E42EC0DF03C5053
:101238004310416E000EE3EC0EF006C035F007C017
:1012480036F0000E386E0A0E376E9CEC0CF035C086
:1012580043F036C044F0433AF00E431606C03CF063
:1012680007C03DF0000E3F6E0A0E3E6E42EC0DF0D8
:101278003C504310416E010EE3EC0EF008C035F00F
:1012880009C036F0000E386E0A0E376E9CEC0CF072
:1012980035C043F036C044F0433AF00E431608C058
:1012A8003CF009C03DF0000E3F6E0A0E3E6E42EC67
:1012B8000DF03C504310416E020EE3EC0EF0000EB0
:1012C800BEEC0EF01E6E1E507F0B416E000EE3EC5E
:1012D8000EF00F0E4518D8A474EF09F076EF09F058
:1012E80078EF09F0020E2B6E1200000E496EA9EC81
:1012F8000EF0C8EF09F0000E4A6E49500A0DF3507F
:101308004A2494EC0EF02CEC0FF04A04D8A48FEF8A
:1013180009F091EF09F094EF09F03A0E2CEC0FF078
:10132800030E4A18D8A49BEF09F09DEF09F0A0EF2F
:1013380009F03A0E2CEC0FF0050E4A18D8A4A7EFC6
:1013480009F0A9EF09F0ACEF09F0200E2CEC0FF032
:10135800070E4A18D8A4B3EF09F0B5EF09F0B8EFB3
:1013680009F0200E2CEC0FF04A2A090E4A64BFEF50
:1013780009F0C1EF09F081EF09F0D60E366E2F0E95
:10138800376E79EC0EF0492A2450495CD8A0CFEF8B
:1013980009F0D1EF09F07FEF09F0C00E376E2E0E7D
:1013A800386E800E396E0CEC0DF0F80E376E2E0E7E
:1013B800386EC00E396E0CEC0DF0600E456EE30E03
:1013C800466E160E476E000E486E4506000E465ACB
:1013D800475A485A45280AE1462808E1472806E1BD
:1013E8004828D8A4FAEF09F0FCEF09F0E9EF09F072
:1013F80085EC0AF0020E2B6E1200819A818C818E88
:1014080081B209EF0AF00BEF0AF00EEF0AF0010EB5
:1014180084EF0AF081B413EF0AF015EF0AF018EF21
:101428000AF0040E84EF0AF081B61DEF0AF01FEFF0
:101438000AF022EF0AF0070E84EF0AF081B827EFCE
:101448000AF029EF0AF02CEF0AF00A0E84EF0AF0EE
:10145800818A819C818E81B234EF0AF036EF0AF0DE
:1014680039EF0AF0020E84EF0AF081B43EEF0AF079
:1014780040EF0AF043EF0AF0050E84EF0AF081B658
:1014880048EF0AF04AEF0AF04DEF0AF0080E84EF31
:101498000AF081B852EF0AF054EF0AF057EF0AF059
:1014A8000B0E84EF0AF0818A818C819E819E81B225
:1014B80060EF0AF062EF0AF065EF0AF0030E84EFBE
:1014C8000AF081B46AEF0AF06CEF0AF06FEF0AF0E5
:1014D800060E84EF0AF081B674EF0AF076EF0AF090
:1014E80079EF0AF0090E84EF0AF081B87EEF0AF06E
:1014F80080EF0AF083EF0AF00C0E84EF0AF0FF0E7B
:1015080012002CC060F02DC061F02FC062F030C016
:1015180063F032C064F033C065F01A50020DF35026
:10152800830FD96EDA6ADECFF6FFDDCFF7FF08004A
:10153800F5CF66F01A50020DF350830FD96EDA6AB0
:10154800DECF41F0DDCF42F0010E4126000E4222EF
:1015580041C0F6FF42C0F7FF0800F5CF67F01CC096
:1015680035F01DC036F0000E386E0A0E376E9CEC52
:101578000CF03550300F0001686F1CC03CF01DC0E6
:101588003DF0000E3F6E0A0E3E6E42EC0DF03C50F0
:10159800300F0001696F000E446E000E436E435019
:1015A800600FD96EDA6ADF50366E24500A0DF35098
:1015B80043243CEC0EF0090E43184410D8A4E7EF7E
:1015C8000AF0E9EF0AF0ECEF0AF0242AFAEF0AF041
:1015D800445009E10A0E435CD8A0F5EF0AF0F7EF92
:1015E8000AF0FAEF0AF0000E246E232A434A442A2E
:1015F800445009E10A0E435CD8A005EF0BF007EF51
:101608000BF0D3EF0AF01200456E020E4518D8A46D
:1016180010EF0BF012EF0BF02CEF0BF01850191025
:10162800D8A419EF0BF01BEF0BF02CEF0BF01B50AD
:1016380007E1060E1A5CD8B024EF0BF026EF0BF08A
:101648007AEF0BF01A4A1B2A85EC0AF07AEF0BF0B6
:10165800030E4518D8A433EF0BF035EF0BF04CEF21
:101668000BF018501910D8A43CEF0BF03EEF0BF01C
:101678004CEF0BF01A501B10D8B445EF0BF047EFA6
:101688000BF07AEF0BF01A06D8A01B0628EF0BF028
:101698004504D8A452EF0BF054EF0BF05EEF0BF0BB
:1016A800000E1B6E070E1A6E000E196E010E186ED4
:1016B80028EF0BF0020E4518D8B465EF0BF067EF72
:1016C8000BF070EF0BF0030E4518D8A46EEF0BF07B
:1016D80070EF0BF07AEF0BF0000E1B6E020E1A6E15
:1016E800000E196E000E186E28EF0BF01A50020D3E
:1016F800F350830FD96EDA6ADECF37F0DDCF38F0DA
:10170800CA0E396E0CEC0DF01200000E956E945056
:10171800F80B946E8290C30E376ECD0EE82EFED76E
:10172800372EFCD70000000E356E330E5CEC0EF041
:101738001B0E376E9E0EE82EFED7372EFCD700D034
:10174800000E356E330E5CEC0EF0A60EE82EFED7BA
:1017580000D0000E356E330E5CEC0EF000D000D0D9
:101768000000000E356E020E5CEC0EF0A60EE82EA0
:10177800FED700D0000E356E380E5CEC0EF0A60ECB
:10178800E82EFED700D0000E356E010E5CEC0EF090
:10179800040E376E3E0EE82EFED7372EFCD7000E0D
:1017A800356E0C0E5CEC0EF0A60EE82EFED700D0BF
:1017B8001200466ED10E376E2F0E386E820E396EBD
:1017C8000CEC0DF0F40E376E2F0E386E8A0E396E53
:1017D8000CEC0DF0EE0E376E2F0E386E8E0E396E45
:1017E8000CEC0DF021EC0CF02C0E376E386AC00EA4
:1017F800396E0CEC0DF0465008EC0BF0D6EC0CF002
:101808002950D8A40AEF0CF00CEF0CF010EF0CF0F4
:1018180085EC0AF0010E296E050E4618D8A417EFBC
:101828000CF019EF0CF020EF0CF0010E2B6E000EEF
:10183800356E010E5CEC0EF01200020EBEEC0EF0DE
:10184800016E010EBEEC0EF0026E000EBEEC0EF044
:10185800036E01AC32EF0CF034EF0CF03FEF0CF0FC
:1018680001380F0B010B300F2C6E01500F0B300F8E
:101878002D6E48EF0CF001380F0B030B300F2C6E58
:1018880001500F0B300F2D6E3A0E2E6E02380F0BD3
:101898000F0B300F2F6E02500F0B300F306E3A0EB9
:1018A800316E03380F0B0F0B300F326E03500F0BD6
:1018B800300F336E000E346E1200356E3504D8A426
:1018C80068EF0CF06AEF0CF08EEF0CF001EC0AF008
:1018D800276E2728D8B473EF0CF075EF0CF082EF61
:1018E8000CF05950D8B47BEF0CF07DEF0CF082EF80
:1018F8000CF0000E596E27509BEF0CF02728D8A447
:1019080088EF0CF08AEF0CF09AEF0CF0010E596E8C
:101918009AEF0CF03550D8A494EF0CF096EF0CF039
:101928009AEF0CF001EC0AF09BEF0CF0FF0E12009E
:10193800000E3A6E000E396E37503810D8B4A7EF43
:101948000CF0A9EF0CF0D1EF0CF0010E3B6EB1EFEB
:101958000CF0D890373638363B2A38AEB6EF0CF054
:10196800B8EF0CF0ADEF0CF0D89039363A36375066
:10197800355C38503658D8A0C4EF0CF0C6EF0CF0E0
:10198800CBEF0CF03750355E3850365A3980D89046
:10199800383237323B2EB8EF0CF039C035F03AC048
:1019A80036F01200040EF8EC0DF035C043F036C0E6
:1019B80044F043C035F044C036F0000E386E0A0ECD
:1019C800376E9CEC0CF035C01CF036C01DF0CF0E05
:1019D800416E1CC03CF01DC03DF0000E3F6E0A0E6B
:1019E8003E6E42EC0DF03C50300FFFEC0EF0CE0E88
:1019F800416E1CC035F01DC036F0000E386E0A0E60
:101A0800376E9CEC0CF03550300FFFEC0EF01200E6
:101A1800000E356E39505CEC0EF029EF0DF0010E1A
:101A2800356E37C0F6FF38C0F7FFF86A050EF76461
:101A380003D00800F55005D0F6CFE9FFF7CFEAFF4D
:101A4800EF505CEC0EF0374A382A37C0F6FF38C042
:101A5800F7FFF86A050EF76403D00800F55005D0C3
:101A6800F6CFE9FFF7CFEAFFEF500009D8A43FEF20
:101A78000DF041EF0DF013EF0DF012003E503F1046
:101A8800D8B449EF0DF04BEF0DF06FEF0DF0010EEC
:101A9800406E53EF0DF0D8903E363F36402A3FAEA9
:101AA80058EF0DF05AEF0DF04FEF0DF03E503C5C43
:101AB8003F503D58D8A063EF0DF065EF0DF069EF8A
:101AC8000DF03E503C5E3F503D5AD8903F323E327A
:101AD800402E5AEF0DF03CC03CF03DC03DF01200E6
:101AE8000600F2A47AEF0DF07CEF0DF0A3EF0DF0F5
:101AF800080ED624D66E000ED720D76E010E000130
:101B08006F27000E702371237223210E6F1909E1CC
:101B18004E0E701971117211D8A495EF0DF097EF50
:101B28000DF0A2EF0DF0000E6F6F000E706F000E3B
:101B3800716F000E726F1606D8A01706F2945A92AB
:101B48001100E40EF66E1D0EF76E000EF86E00EE34
:101B580083F010EE1AF00900F5CFEEFFE550E150E2
:101B6800FAE1D00EF66E1E0EF76E000EF86E090042
:101B7800F5CF58F00900F5CF59F000EE60F0230ECC
:101B8800EE6AE806FDE100EE01F0340EEE6AE806C2
:101B9800FDE15A905A92000EF86E00014AEF07F0E4
:101BA800000EBEEC0EF0436E43508009416E000EED
:101BB800E3EC0EF0020EBEEC0EF0436E435040090B
:101BC800416E020EE3EC0EF0930E416E070EE3EC4D
:101BD8000EF0000EBEEC0EF0436E43507F0B416ECC
:101BE800000EE3EC0EF012003B6E3BC037F0D890CD
:101BF8003736D8903736C250C30B3710C26EC28200
:101C0800C2B209EF0EF00BEF0EF004EF0EF0C35066
:101C1800C4CF37F0386A37C038F0376A3710396EB2
:101C280038503A6E39C035F03AC036F012003A6E84
:101C3800000E246E000E236E3D0E376E2F0E386E8A
:101C4800800E396E0CEC0DF09C0E376E2F0E386E30
:101C5800C20E396E0CEC0DF0100E3A18D8A437EFFE
:101C68000EF039EF0EF03BEF0EF0020E2B6E120065
:101C7800396E61EC0FF0A00E4FEC0FF039504FECBD
:101C88000FF036504FEC0FF05DEC0FF00B0E386E86
:101C9800B80E376E3706D8A03806372806E1382838
:101CA800D8A459EF0EF05BEF0EF04EEF0EF01200D5
:101CB800366E35B062EF0EF065EF0EF0828266EF99
:101CC8000EF0829236C083FF82848294958E828041
:101CD80082928284829483BE74EF0EF076EF0EF0C7
:101CE8006DEF0EF08290959E120085EF0EF036C0D3
:101CF800F6FF37C0F7FF0800F5502CEC0FF0364A16
:101D0800372A36C0F6FF37C0F7FF0800F55000093C
:101D1800D8A491EF0EF093EF0EF07BEF0EF01200C7
:101D2800366E61EC0FF0A00E4FEC0FF036504FEC12
:101D38000FF055EC0FF0A10E4FEC0FF049EC0FF03F
:101D4800376E5DEC0FF037501200948E949CAC9C6B
:101D5800AC8AAC98AC96AC84AB8EAB9CAB88B89E86
:101D6800B896B892B890810EAF6E9D889E989D8A5D
:101D78009E9A1200366E61EC0FF0D00E4FEC0FF009
:101D880036504FEC0FF055EC0FF0D10E4FEC0FF032
:101D980049EC0FF0376E5DEC0FF037501200C08E33
:101DA800C09AC088C096C090C082C094C292C19A9E
:101DB800C198000EC46E000EC36EC2801200426E3F
:101DC80061EC0FF0D00E4FEC0FF042504FEC0FF0DB
:101DD80041504FEC0FF05DEC0FF01200EB2FF12F9C
:101DE800E82FD92FDC2FDF2FE22FE52F5F2F962E3C
:101DF800D32E4E2F7D2E426E000E356E41505CEC78
:101E08000EF0010E356E42505CEC0EF01200D58CCF
:101E1800D59AD58ED586000ED76E060ED66EF2945C
:101E2800F28A1200D3EC0EF089EC0BF037EC0FF0CD
:101E380021EC0FF0D4EC0DF0120094869488280E53
:101E4800C66E310EC86EC79CC78E9E96A1961200AC
:101E5800356E9EA832EF0FF034EF0FF02DEF0FF034
:101E680035C0ADFF12000F0EC16E1E0E936EF19EAF
:101E78008150E009816E12009EA645EF0FF047EFF2
:101E88000FF040EF0FF09E96120059EC0FF065EC42
:101E98000FF0C9501200356E35C0C9FF40EC0FF085
:101EA8001200C58240EC0FF01200C58640EC0FF01E
:101EB8001200C58440EC0FF01200C58040EC0FF012
:0A1EC8001200C58AC588120003014C
:102E7C00004348414E47452050415353574F52440D
:102E8C0020202020202020202000444F574E4C4F43
:102E9C004144204C4F47202020202020202020205F
:102EAC0000454E544552204E4557205041535357E0
:102EBC004F524400204C4F475320444F574E4C4FD9
:102ECC0041444544202000434C454152204C4F473F
:102EDC0020202020202020202000524520454E5428
:102EEC0045522050415353574F52440020535543A1
:102EFC004345535346554C4C59202020200020204C
:102F0C0020204641494C55524520202020200020AD
:102F1C005355434345535346554C4C5920202000A0
:102F2C004348414E47452050415353574F5244203C
:102F3C00004C4F47532041524520434C454152458C
:102F4C0044005345542054494D4520202020202036
:102F5C0020200056494557204C4F47202020202048
:102F6C00202000594F552041524520424C4F434B95
:102F7C0045440057524F4E472050415353574F52E0
:102F8C0044004E4F204C4F475320464F554E440063
:102F9C005355434345535346554C4C590041747457
:102FAC00656D7074204C6566740048483A4D4D3A16
:102FBC005353005345434F4E4453004C4F4753001B
:102FCC00464F52200054494D45000A0D0047310030
:102FDC004732004733004734002D4300474E004F23
:102FEC004E005350004752004556002E003A002A1E
:042FFC00005F000072
:020000040020DA
:08000000FFFFFFFFFFFFFFFF00
:020000040030CA
:0E000000FF071F1FFF8285FF0FC00FE00F409C
:00000001FF
